:020000000000fe
:020001000003fa
:020002000006f6
:020003000009f2
:02000400000ded
:020005000010e9
:020006000013e5
:020007000016e1
:020008000019dd
:02000900001cd9
:02000a00001fd5
:02000b000023d0
:02000c000026cc
:02000d000029c8
:02000e00002cc4
:02000f00002fc0
:020010000032bc
:020011000035b8
:020012000039b3
:02001300003caf
:02001400003fab
:020015000042a7
:020016000045a3
:0200170000489f
:02001800004b9b
:02001900004f96
:02001a00005292
:02001b0000558e
:02001c0000588a
:02001d00005b86
:02001e00005e82
:02001f0000617e
:02002000006579
:02002100006875
:02002200006b71
:02002300006e6d
:02002400007169
:02002500007465
:02002600007761
:02002700007b5c
:02002800007e58
:02002900008154
:02002a00008450
:02002b0000874c
:02002c00008a48
:02002d00008d44
:02002e00009040
:02002f0000943b
:02003000009737
:02003100009a33
:02003200009d2f
:0200330000a02b
:0200340000a327
:0200350000a623
:0200360000aa1e
:0200370000ad1a
:0200380000b016
:0200390000b312
:02003a0000b60e
:02003b0000b90a
:02003c0000bc06
:02003d0000c001
:02003e0000c3fd
:02003f0000c6f9
:0200400000c9f5
:0200410000ccf1
:0200420000cfed
:0200430000d2e9
:0200440000d6e4
:0200450000d9e0
:0200460000dcdc
:0200470000dfd8
:0200480000e2d4
:0200490000e5d0
:02004a0000e8cc
:02004b0000ecc7
:02004c0000efc3
:02004d0000f2bf
:02004e0000f5bb
:02004f0000f8b7
:0200500000fbb3
:0200510000feaf
:020052000102a9
:020053000105a5
:020054000108a1
:02005500010b9d
:02005600010e99
:02005700011195
:02005800011491
:0200590001188c
:02005a00011b88
:02005b00011e84
:02005c00012180
:02005d0001247c
:02005e00012778
:02005f00012a74
:02006000012d70
:0200610001316b
:02006200013467
:02006300013763
:02006400013a5f
:02006500013d5b
:02006600014057
:02006700014353
:0200680001474e
:02006900014a4a
:02006a00014d46
:02006b00015042
:02006c0001533e
:02006d0001563a
:02006e00015936
:02006f00015d31
:0200700001602d
:02007100016329
:02007200016625
:02007300016921
:02007400016c1d
:02007500016f19
:02007600017314
:02007700017610
:0200780001790c
:02007900017c08
:02007a00017f04
:02007b00018200
:02007c000185fc
:02007d000189f7
:02007e00018cf3
:02007f00018fef
:020080000192eb
:020081000195e7
:020082000198e3
:02008300019bdf
:02008400019edb
:0200850001a2d6
:0200860001a5d2
:0200870001a8ce
:0200880001abca
:0200890001aec6
:02008a0001b1c2
:02008b0001b4be
:02008c0001b8b9
:02008d0001bbb5
:02008e0001beb1
:02008f0001c1ad
:0200900001c4a9
:0200910001c7a5
:0200920001caa1
:0200930001ce9c
:0200940001d198
:0200950001d494
:0200960001d790
:0200970001da8c
:0200980001dd88
:0200990001e084
:02009a0001e380
:02009b0001e77b
:02009c0001ea77
:02009d0001ed73
:02009e0001f06f
:02009f0001f36b
:0200a00001f667
:0200a10001f963
:0200a20001fd5e
:0200a300020059
:0200a400020355
:0200a500020651
:0200a60002094d
:0200a700020c49
:0200a800020f45
:0200a900021241
:0200aa0002163c
:0200ab00021938
:0200ac00021c34
:0200ad00021f30
:0200ae0002222c
:0200af00022528
:0200b000022824
:0200b100022c1f
:0200b200022f1b
:0200b300023217
:0200b400023513
:0200b50002380f
:0200b600023b0b
:0200b700023e07
:0200b800024202
:0200b9000245fe
:0200ba000248fa
:0200bb00024bf6
:0200bc00024ef2
:0200bd000251ee
:0200be000254ea
:0200bf000257e6
:0200c000025be1
:0200c100025edd
:0200c2000261d9
:0200c3000264d5
:0200c4000267d1
:0200c500026acd
:0200c600026dc9
:0200c7000270c5
:0200c8000274c0
:0200c9000277bc
:0200ca00027ab8
:0200cb00027db4
:0200cc000280b0
:0200cd000283ac
:0200ce000286a8
:0200cf00028aa3
:0200d000028d9f
:0200d10002909b
:0200d200029397
:0200d300029693
:0200d40002998f
:0200d500029c8b
:0200d600029f87
:0200d70002a382
:0200d80002a67e
:0200d90002a97a
:0200da0002ac76
:0200db0002af72
:0200dc0002b26e
:0200dd0002b56a
:0200de0002b965
:0200df0002bc61
:0200e00002bf5d
:0200e10002c259
:0200e20002c555
:0200e30002c851
:0200e40002cb4d
:0200e50002ce49
:0200e60002d244
:0200e70002d540
:0200e80002d83c
:0200e90002db38
:0200ea0002de34
:0200eb0002e130
:0200ec0002e42c
:0200ed0002e728
:0200ee0002eb23
:0200ef0002ee1f
:0200f00002f11b
:0200f10002f417
:0200f20002f713
:0200f30002fa0f
:0200f40002fd0b
:0200f500030006
:0200f600030401
:0200f7000307fd
:0200f800030af9
:0200f900030df5
:0200fa000310f1
:0200fb000313ed
:0200fc000316e9
:0200fd000319e5
:0200fe00031de0
:0200ff000320dc
:020100000323d7
:020101000326d3
:020102000329cf
:02010300032ccb
:02010400032fc7
:020105000332c3
:020106000336be
:020107000339ba
:02010800033cb6
:02010900033fb2
:02010a000342ae
:02010b000345aa
:02010c000348a6
:02010d00034ba2
:02010e00034f9d
:02010f00035299
:02011000035595
:02011100035891
:02011200035b8d
:02011300035e89
:02011400036185
:02011500036481
:0201160003687c
:02011700036b78
:02011800036e74
:02011900037170
:02011a0003746c
:02011b00037768
:02011c00037a64
:02011d00037d60
:02011e0003815b
:02011f00038457
:02012000038753
:02012100038a4f
:02012200038d4b
:02012300039047
:02012400039343
:0201250003963f
:02012600039a3a
:02012700039d36
:0201280003a032
:0201290003a32e
:02012a0003a62a
:02012b0003a926
:02012c0003ac22
:02012d0003af1e
:02012e0003b319
:02012f0003b615
:0201300003b911
:0201310003bc0d
:0201320003bf09
:0201330003c205
:0201340003c501
:0201350003c8fd
:0201360003cbf9
:0201370003cff4
:0201380003d2f0
:0201390003d5ec
:02013a0003d8e8
:02013b0003dbe4
:02013c0003dee0
:02013d0003e1dc
:02013e0003e4d8
:02013f0003e8d3
:0201400003ebcf
:0201410003eecb
:0201420003f1c7
:0201430003f4c3
:0201440003f7bf
:0201450003fabb
:0201460003fdb7
:020147000400b2
:020148000404ad
:020149000407a9
:02014a00040aa5
:02014b00040da1
:02014c0004109d
:02014d00041399
:02014e00041695
:02014f00041991
:02015000041d8c
:02015100042088
:02015200042384
:02015300042680
:0201540004297c
:02015500042c78
:02015600042f74
:02015700043270
:0201580004356c
:02015900043967
:02015a00043c63
:02015b00043f5f
:02015c0004425b
:02015d00044557
:02015e00044853
:02015f00044b4f
:02016000044e4b
:02016100045147
:02016200045542
:0201630004583e
:02016400045b3a
:02016500045e36
:02016600046132
:0201670004642e
:0201680004672a
:02016900046a26
:02016a00046d22
:02016b0004711d
:02016c00047419
:02016d00047715
:02016e00047a11
:02016f00047d0d
:02017000048009
:02017100048305
:02017200048601
:020173000489fd
:02017400048df8
:020175000490f4
:020176000493f0
:020177000496ec
:020178000499e8
:02017900049ce4
:02017a00049fe0
:02017b0004a2dc
:02017c0004a5d8
:02017d0004a9d3
:02017e0004accf
:02017f0004afcb
:0201800004b2c7
:0201810004b5c3
:0201820004b8bf
:0201830004bbbb
:0201840004beb7
:0201850004c1b3
:0201860004c5ae
:0201870004c8aa
:0201880004cba6
:0201890004cea2
:02018a0004d19e
:02018b0004d49a
:02018c0004d796
:02018d0004da92
:02018e0004dd8e
:02018f0004e08a
:0201900004e485
:0201910004e781
:0201920004ea7d
:0201930004ed79
:0201940004f075
:0201950004f371
:0201960004f66d
:0201970004f969
:0201980004fc65
:0201990004ff61
:02019a0005035b
:02019b00050657
:02019c00050953
:02019d00050c4f
:02019e00050f4b
:02019f00051247
:0201a000051543
:0201a10005183f
:0201a200051b3b
:0201a300051f36
:0201a400052232
:0201a50005252e
:0201a60005282a
:0201a700052b26
:0201a800052e22
:0201a90005311e
:0201aa0005341a
:0201ab00053716
:0201ac00053a12
:0201ad00053e0d
:0201ae00054109
:0201af00054405
:0201b000054701
:0201b100054afd
:0201b200054df9
:0201b3000550f5
:0201b4000553f1
:0201b5000556ed
:0201b6000559e9
:0201b700055ce5
:0201b8000560e0
:0201b9000563dc
:0201ba000566d8
:0201bb000569d4
:0201bc00056cd0
:0201bd00056fcc
:0201be000572c8
:0201bf000575c4
:0201c0000578c0
:0201c100057bbc
:0201c200057fb7
:0201c3000582b3
:0201c4000585af
:0201c5000588ab
:0201c600058ba7
:0201c700058ea3
:0201c80005919f
:0201c90005949b
:0201ca00059797
:0201cb00059a93
:0201cc00059d8f
:0201cd0005a18a
:0201ce0005a486
:0201cf0005a782
:0201d00005aa7e
:0201d10005ad7a
:0201d20005b076
:0201d30005b372
:0201d40005b66e
:0201d50005b96a
:0201d60005bc66
:0201d70005bf62
:0201d80005c35d
:0201d90005c659
:0201da0005c955
:0201db0005cc51
:0201dc0005cf4d
:0201dd0005d249
:0201de0005d545
:0201df0005d841
:0201e00005db3d
:0201e10005de39
:0201e20005e135
:0201e30005e530
:0201e40005e82c
:0201e50005eb28
:0201e60005ee24
:0201e70005f120
:0201e80005f41c
:0201e90005f718
:0201ea0005fa14
:0201eb0005fd10
:0201ec0006000b
:0201ed00060307
:0201ee00060603
:0201ef00060afe
:0201f000060dfa
:0201f1000610f6
:0201f2000613f2
:0201f3000616ee
:0201f4000619ea
:0201f500061ce6
:0201f600061fe2
:0201f7000622de
:0201f8000625da
:0201f9000628d6
:0201fa00062bd2
:0201fb00062fcd
:0201fc000632c9
:0201fd000635c5
:0201fe000638c1
:0201ff00063bbd
:02020000063eb8
:020201000641b4
:020202000644b0
:020203000647ac
:02020400064aa8
:02020500064da4
:020206000650a0
:0202070006549b
:02020800065797
:02020900065a93
:02020a00065d8f
:02020b0006608b
:02020c00066387
:02020d00066683
:02020e0006697f
:02020f00066c7b
:02021000066f77
:02021100067273
:0202120006756f
:0202130006786b
:02021400067c66
:02021500067f62
:0202160006825e
:0202170006855a
:02021800068856
:02021900068b52
:02021a00068e4e
:02021b0006914a
:02021c00069446
:02021d00069742
:02021e00069a3e
:02021f00069d3a
:0202200006a036
:0202210006a431
:0202220006a72d
:0202230006aa29
:0202240006ad25
:0202250006b021
:0202260006b31d
:0202270006b619
:0202280006b915
:0202290006bc11
:02022a0006bf0d
:02022b0006c209
:02022c0006c505
:02022d0006c801
:02022e0006cbfd
:02022f0006cff8
:0202300006d2f4
:0202310006d5f0
:0202320006d8ec
:0202330006dbe8
:0202340006dee4
:0202350006e1e0
:0202360006e4dc
:0202370006e7d8
:0202380006ead4
:0202390006edd0
:02023a0006f0cc
:02023b0006f3c8
:02023c0006f6c4
:02023d0006f9c0
:02023e0006fdbb
:02023f000700b6
:020240000703b2
:020241000706ae
:020242000709aa
:02024300070ca6
:02024400070fa2
:0202450007129e
:0202460007159a
:02024700071896
:02024800071b92
:02024900071e8e
:02024a0007218a
:02024b00072486
:02024c00072782
:02024d00072a7e
:02024e00072e79
:02024f00073175
:02025000073471
:0202510007376d
:02025200073a69
:02025300073d65
:02025400074061
:0202550007435d
:02025600074659
:02025700074955
:02025800074c51
:02025900074f4d
:02025a00075249
:02025b00075545
:02025c00075841
:02025d00075b3d
:02025e00075e39
:02025f00076234
:02026000076530
:0202610007682c
:02026200076b28
:02026300076e24
:02026400077120
:0202650007741c
:02026600077718
:02026700077a14
:02026800077d10
:0202690007800c
:02026a00078308
:02026b00078604
:02026c00078900
:02026d00078cfc
:02026e00078ff8
:02026f000792f4
:020270000795f0
:020271000799eb
:02027200079ce7
:02027300079fe3
:0202740007a2df
:0202750007a5db
:0202760007a8d7
:0202770007abd3
:0202780007aecf
:0202790007b1cb
:02027a0007b4c7
:02027b0007b7c3
:02027c0007babf
:02027d0007bdbb
:02027e0007c0b7
:02027f0007c3b3
:0202800007c6af
:0202810007c9ab
:0202820007cca7
:0202830007cfa3
:0202840007d29f
:0202850007d59b
:0202860007d996
:0202870007dc92
:0202880007df8e
:0202890007e28a
:02028a0007e586
:02028b0007e882
:02028c0007eb7e
:02028d0007ee7a
:02028e0007f176
:02028f0007f472
:0202900007f76e
:0202910007fa6a
:0202920007fd66
:02029300080061
:0202940008035d
:02029500080659
:02029600080955
:02029700080c51
:02029800080f4d
:02029900081249
:02029a00081545
:02029b00081841
:02029c00081b3d
:02029d00081e39
:02029e00082234
:02029f00082530
:0202a00008282c
:0202a100082b28
:0202a200082e24
:0202a300083120
:0202a40008341c
:0202a500083718
:0202a600083a14
:0202a700083d10
:0202a80008400c
:0202a900084308
:0202aa00084604
:0202ab00084900
:0202ac00084cfc
:0202ad00084ff8
:0202ae000852f4
:0202af000855f0
:0202b0000858ec
:0202b100085be8
:0202b200085ee4
:0202b3000861e0
:0202b4000864dc
:0202b5000867d8
:0202b600086ad4
:0202b700086dd0
:0202b8000870cc
:0202b9000873c8
:0202ba000876c4
:0202bb00087abf
:0202bc00087dbb
:0202bd000880b7
:0202be000883b3
:0202bf000886af
:0202c0000889ab
:0202c100088ca7
:0202c200088fa3
:0202c30008929f
:0202c40008959b
:0202c500089897
:0202c600089b93
:0202c700089e8f
:0202c80008a18b
:0202c90008a487
:0202ca0008a783
:0202cb0008aa7f
:0202cc0008ad7b
:0202cd0008b077
:0202ce0008b373
:0202cf0008b66f
:0202d00008b96b
:0202d10008bc67
:0202d20008bf63
:0202d30008c25f
:0202d40008c55b
:0202d50008c857
:0202d60008cb53
:0202d70008ce4f
:0202d80008d14b
:0202d90008d447
:0202da0008d743
:0202db0008da3f
:0202dc0008dd3b
:0202dd0008e037
:0202de0008e333
:0202df0008e62f
:0202e00008e92b
:0202e10008ec27
:0202e20008ef23
:0202e30008f21f
:0202e40008f51b
:0202e50008f817
:0202e60008fb13
:0202e70008fe0f
:0202e80009010a
:0202e900090406
:0202ea00090801
:0202eb00090bfd
:0202ec00090ef9
:0202ed000911f5
:0202ee000914f1
:0202ef000917ed
:0202f000091ae9
:0202f100091de5
:0202f2000920e1
:0202f3000923dd
:0202f4000926d9
:0202f5000929d5
:0202f600092cd1
:0202f700092fcd
:0202f8000932c9
:0202f9000935c5
:0202fa000938c1
:0202fb00093bbd
:0202fc00093eb9
:0202fd000941b5
:0202fe000944b1
:0202ff000947ad
:02030000094aa8
:02030100094da4
:020302000950a0
:0203030009539c
:02030400095698
:02030500095994
:02030600095c90
:02030700095f8c
:02030800096288
:02030900096584
:02030a00096880
:02030b00096b7c
:02030c00096e78
:02030d00097174
:02030e00097470
:02030f0009776c
:02031000097a68
:02031100097d64
:02031200098060
:0203130009835c
:02031400098658
:02031500098954
:02031600098c50
:02031700098f4c
:02031800099248
:02031900099544
:02031a00099840
:02031b00099b3c
:02031c00099e38
:02031d0009a134
:02031e0009a430
:02031f0009a72c
:0203200009aa28
:0203210009ad24
:0203220009b020
:0203230009b31c
:0203240009b618
:0203250009b914
:0203260009bc10
:0203270009bf0c
:0203280009c208
:0203290009c504
:02032a0009c800
:02032b0009cbfc
:02032c0009cef8
:02032d0009d1f4
:02032e0009d4f0
:02032f0009d7ec
:0203300009dae8
:0203310009dde4
:0203320009e0e0
:0203330009e3dc
:0203340009e6d8
:0203350009e9d4
:0203360009ecd0
:0203370009efcc
:0203380009f1c9
:0203390009f4c5
:02033a0009f7c1
:02033b0009fabd
:02033c0009fdb9
:02033d000a00b4
:02033e000a03b0
:02033f000a06ac
:020340000a09a8
:020341000a0ca4
:020342000a0fa0
:020343000a129c
:020344000a1598
:020345000a1894
:020346000a1b90
:020347000a1e8c
:020348000a2188
:020349000a2484
:02034a000a2780
:02034b000a2a7c
:02034c000a2d78
:02034d000a3074
:02034e000a3370
:02034f000a366c
:020350000a3968
:020351000a3c64
:020352000a3f60
:020353000a425c
:020354000a4558
:020355000a4854
:020356000a4b50
:020357000a4e4c
:020358000a5148
:020359000a5444
:02035a000a5740
:02035b000a5a3c
:02035c000a5d38
:02035d000a6034
:02035e000a6330
:02035f000a662c
:020360000a6928
:020361000a6c24
:020362000a6f20
:020363000a721c
:020364000a7419
:020365000a7715
:020366000a7a11
:020367000a7d0d
:020368000a8009
:020369000a8305
:02036a000a8601
:02036b000a89fd
:02036c000a8cf9
:02036d000a8ff5
:02036e000a92f1
:02036f000a95ed
:020370000a98e9
:020371000a9be5
:020372000a9ee1
:020373000aa1dd
:020374000aa4d9
:020375000aa7d5
:020376000aaad1
:020377000aadcd
:020378000ab0c9
:020379000ab3c5
:02037a000ab6c1
:02037b000ab9bd
:02037c000abcb9
:02037d000abfb5
:02037e000ac2b1
:02037f000ac5ad
:020380000ac7aa
:020381000acaa6
:020382000acda2
:020383000ad09e
:020384000ad39a
:020385000ad696
:020386000ad992
:020387000adc8e
:020388000adf8a
:020389000ae286
:02038a000ae582
:02038b000ae87e
:02038c000aeb7a
:02038d000aee76
:02038e000af172
:02038f000af46e
:020390000af76a
:020391000afa66
:020392000afd62
:020393000b005d
:020394000b0359
:020395000b0556
:020396000b0852
:020397000b0b4e
:020398000b0e4a
:020399000b1146
:02039a000b1442
:02039b000b173e
:02039c000b1a3a
:02039d000b1d36
:02039e000b2032
:02039f000b232e
:0203a0000b262a
:0203a1000b2926
:0203a2000b2c22
:0203a3000b2f1e
:0203a4000b321a
:0203a5000b3516
:0203a6000b3812
:0203a7000b3a0f
:0203a8000b3d0b
:0203a9000b4007
:0203aa000b4303
:0203ab000b46ff
:0203ac000b49fb
:0203ad000b4cf7
:0203ae000b4ff3
:0203af000b52ef
:0203b0000b55eb
:0203b1000b58e7
:0203b2000b5be3
:0203b3000b5edf
:0203b4000b61db
:0203b5000b64d7
:0203b6000b67d3
:0203b7000b6acf
:0203b8000b6ccc
:0203b9000b6fc8
:0203ba000b72c4
:0203bb000b75c0
:0203bc000b78bc
:0203bd000b7bb8
:0203be000b7eb4
:0203bf000b81b0
:0203c0000b84ac
:0203c1000b87a8
:0203c2000b8aa4
:0203c3000b8da0
:0203c4000b909c
:0203c5000b9398
:0203c6000b9595
:0203c7000b9891
:0203c8000b9b8d
:0203c9000b9e89
:0203ca000ba185
:0203cb000ba481
:0203cc000ba77d
:0203cd000baa79
:0203ce000bad75
:0203cf000bb071
:0203d0000bb36d
:0203d1000bb669
:0203d2000bb965
:0203d3000bbc61
:0203d4000bbe5e
:0203d5000bc15a
:0203d6000bc456
:0203d7000bc752
:0203d8000bca4e
:0203d9000bcd4a
:0203da000bd046
:0203db000bd342
:0203dc000bd63e
:0203dd000bd93a
:0203de000bdc36
:0203df000bdf32
:0203e0000be12f
:0203e1000be42b
:0203e2000be727
:0203e3000bea23
:0203e4000bed1f
:0203e5000bf01b
:0203e6000bf317
:0203e7000bf613
:0203e8000bf90f
:0203e9000bfc0b
:0203ea000bff07
:0203eb000c0202
:0203ec000c04ff
:0203ed000c07fb
:0203ee000c0af7
:0203ef000c0df3
:0203f0000c10ef
:0203f1000c13eb
:0203f2000c16e7
:0203f3000c19e3
:0203f4000c1cdf
:0203f5000c1fdb
:0203f6000c22d7
:0203f7000c24d4
:0203f8000c27d0
:0203f9000c2acc
:0203fa000c2dc8
:0203fb000c30c4
:0203fc000c33c0
:0203fd000c36bc
:0203fe000c39b8
:0203ff000c3cb4
:020400000c3faf
:020401000c41ac
:020402000c44a8
:020403000c47a4
:020404000c4aa0
:020405000c4d9c
:020406000c5098
:020407000c5394
:020408000c5690
:020409000c598c
:02040a000c5c88
:02040b000c5e85
:02040c000c6181
:02040d000c647d
:02040e000c6779
:02040f000c6a75
:020410000c6d71
:020411000c706d
:020412000c7369
:020413000c7665
:020414000c7961
:020415000c7b5e
:020416000c7e5a
:020417000c8156
:020418000c8452
:020419000c874e
:02041a000c8a4a
:02041b000c8d46
:02041c000c9042
:02041d000c933e
:02041e000c953b
:02041f000c9837
:020420000c9b33
:020421000c9e2f
:020422000ca12b
:020423000ca427
:020424000ca723
:020425000caa1f
:020426000cad1b
:020427000caf18
:020428000cb214
:020429000cb510
:02042a000cb80c
:02042b000cbb08
:02042c000cbe04
:02042d000cc100
:02042e000cc4fc
:02042f000cc6f9
:020430000cc9f5
:020431000cccf1
:020432000ccfed
:020433000cd2e9
:020434000cd5e5
:020435000cd8e1
:020436000cdbdd
:020437000cddda
:020438000ce0d6
:020439000ce3d2
:02043a000ce6ce
:02043b000ce9ca
:02043c000cecc6
:02043d000cefc2
:02043e000cf2be
:02043f000cf4bb
:020440000cf7b7
:020441000cfab3
:020442000cfdaf
:020443000d00aa
:020444000d03a6
:020445000d06a2
:020446000d099e
:020447000d0b9b
:020448000d0e97
:020449000d1193
:02044a000d148f
:02044b000d178b
:02044c000d1a87
:02044d000d1d83
:02044e000d1f80
:02044f000d227c
:020450000d2578
:020451000d2874
:020452000d2b70
:020453000d2e6c
:020454000d3168
:020455000d3464
:020456000d3661
:020457000d395d
:020458000d3c59
:020459000d3f55
:02045a000d4251
:02045b000d454d
:02045c000d4849
:02045d000d4a46
:02045e000d4d42
:02045f000d503e
:020460000d533a
:020461000d5636
:020462000d5932
:020463000d5c2e
:020464000d5e2b
:020465000d6127
:020466000d6423
:020467000d671f
:020468000d6a1b
:020469000d6d17
:02046a000d7013
:02046b000d7210
:02046c000d750c
:02046d000d7808
:02046e000d7b04
:02046f000d7e00
:020470000d81fc
:020471000d83f9
:020472000d86f5
:020473000d89f1
:020474000d8ced
:020475000d8fe9
:020476000d92e5
:020477000d95e1
:020478000d97de
:020479000d9ada
:02047a000d9dd6
:02047b000da0d2
:02047c000da3ce
:02047d000da6ca
:02047e000da8c7
:02047f000dabc3
:020480000daebf
:020481000db1bb
:020482000db4b7
:020483000db7b3
:020484000db9b0
:020485000dbcac
:020486000dbfa8
:020487000dc2a4
:020488000dc5a0
:020489000dc89c
:02048a000dca99
:02048b000dcd95
:02048c000dd091
:02048d000dd38d
:02048e000dd689
:02048f000dd985
:020490000ddb82
:020491000dde7e
:020492000de17a
:020493000de476
:020494000de772
:020495000dea6e
:020496000dec6b
:020497000def67
:020498000df263
:020499000df55f
:02049a000df85b
:02049b000dfb57
:02049c000dfd54
:02049d000e004f
:02049e000e034b
:02049f000e0647
:0204a0000e0943
:0204a1000e0c3f
:0204a2000e0e3c
:0204a3000e1138
:0204a4000e1434
:0204a5000e1730
:0204a6000e1a2c
:0204a7000e1c29
:0204a8000e1f25
:0204a9000e2221
:0204aa000e251d
:0204ab000e2819
:0204ac000e2b15
:0204ad000e2d12
:0204ae000e300e
:0204af000e330a
:0204b0000e3606
:0204b1000e3902
:0204b2000e3bff
:0204b3000e3efb
:0204b4000e41f7
:0204b5000e44f3
:0204b6000e47ef
:0204b7000e49ec
:0204b8000e4ce8
:0204b9000e4fe4
:0204ba000e52e0
:0204bb000e55dc
:0204bc000e58d8
:0204bd000e5ad5
:0204be000e5dd1
:0204bf000e60cd
:0204c0000e63c9
:0204c1000e66c5
:0204c2000e68c2
:0204c3000e6bbe
:0204c4000e6eba
:0204c5000e71b6
:0204c6000e74b2
:0204c7000e76af
:0204c8000e79ab
:0204c9000e7ca7
:0204ca000e7fa3
:0204cb000e829f
:0204cc000e849c
:0204cd000e8798
:0204ce000e8a94
:0204cf000e8d90
:0204d0000e908c
:0204d1000e9289
:0204d2000e9585
:0204d3000e9881
:0204d4000e9b7d
:0204d5000e9e79
:0204d6000ea076
:0204d7000ea372
:0204d8000ea66e
:0204d9000ea96a
:0204da000eac66
:0204db000eae63
:0204dc000eb15f
:0204dd000eb45b
:0204de000eb757
:0204df000eb954
:0204e0000ebc50
:0204e1000ebf4c
:0204e2000ec248
:0204e3000ec544
:0204e4000ec741
:0204e5000eca3d
:0204e6000ecd39
:0204e7000ed035
:0204e8000ed331
:0204e9000ed52e
:0204ea000ed82a
:0204eb000edb26
:0204ec000ede22
:0204ed000ee01f
:0204ee000ee31b
:0204ef000ee617
:0204f0000ee913
:0204f1000eec0f
:0204f2000eee0c
:0204f3000ef108
:0204f4000ef404
:0204f5000ef700
:0204f6000ef9fd
:0204f7000efcf9
:0204f8000efff5
:0204f9000f02f0
:0204fa000f05ec
:0204fb000f07e9
:0204fc000f0ae5
:0204fd000f0de1
:0204fe000f10dd
:0204ff000f12da
:020500000f15d5
:020501000f18d1
:020502000f1bcd
:020503000f1ec9
:020504000f20c6
:020505000f23c2
:020506000f26be
:020507000f29ba
:020508000f2bb7
:020509000f2eb3
:02050a000f31af
:02050b000f34ab
:02050c000f36a8
:02050d000f39a4
:02050e000f3ca0
:02050f000f3f9c
:020510000f4199
:020511000f4495
:020512000f4791
:020513000f4a8d
:020514000f4d89
:020515000f4f86
:020516000f5282
:020517000f557e
:020518000f587a
:020519000f5a77
:02051a000f5d73
:02051b000f606f
:02051c000f636b
:02051d000f6568
:02051e000f6864
:02051f000f6b60
:020520000f6e5c
:020521000f7059
:020522000f7355
:020523000f7651
:020524000f794d
:020525000f7b4a
:020526000f7e46
:020527000f8142
:020528000f843e
:020529000f863b
:02052a000f8937
:02052b000f8c33
:02052c000f8f2f
:02052d000f912c
:02052e000f9428
:02052f000f9724
:020530000f9a20
:020531000f9c1d
:020532000f9f19
:020533000fa215
:020534000fa412
:020535000fa70e
:020536000faa0a
:020537000fad06
:020538000faf03
:020539000fb2ff
:02053a000fb5fb
:02053b000fb8f7
:02053c000fbaf4
:02053d000fbdf0
:02053e000fc0ec
:02053f000fc3e8
:020540000fc5e5
:020541000fc8e1
:020542000fcbdd
:020543000fced9
:020544000fd0d6
:020545000fd3d2
:020546000fd6ce
:020547000fd8cb
:020548000fdbc7
:020549000fdec3
:02054a000fe1bf
:02054b000fe3bc
:02054c000fe6b8
:02054d000fe9b4
:02054e000fecb0
:02054f000feead
:020550000ff1a9
:020551000ff4a5
:020552000ff6a2
:020553000ff99e
:020554000ffc9a
:020555000fff96
:02055600100192
:0205570010048e
:0205580010078a
:02055900100987
:02055a00100c83
:02055b00100f7f
:02055c0010127b
:02055d00101478
:02055e00101774
:02055f00101a70
:02056000101c6d
:02056100101f69
:02056200102265
:02056300102561
:0205640010275e
:02056500102a5a
:02056600102d56
:02056700102f53
:0205680010324f
:0205690010354b
:02056a00103847
:02056b00103a44
:02056c00103d40
:02056d0010403c
:02056e00104239
:02056f00104535
:02057000104831
:02057100104b2d
:02057200104d2a
:02057300105026
:02057400105322
:0205750010551f
:0205760010581b
:02057700105b17
:02057800105d14
:02057900106010
:02057a0010630c
:02057b00106608
:02057c00106805
:02057d00106b01
:02057e00106efd
:02057f001070fa
:020580001073f6
:020581001076f2
:020582001078ef
:02058300107beb
:02058400107ee7
:020585001080e4
:020586001083e0
:020587001086dc
:020588001089d8
:02058900108bd5
:02058a00108ed1
:02058b001091cd
:02058c001093ca
:02058d001096c6
:02058e001099c2
:02058f00109bbf
:02059000109ebb
:0205910010a1b7
:0205920010a3b4
:0205930010a6b0
:0205940010a9ac
:0205950010aba9
:0205960010aea5
:0205970010b1a1
:0205980010b39e
:0205990010b69a
:02059a0010b996
:02059b0010bc92
:02059c0010be8f
:02059d0010c18b
:02059e0010c487
:02059f0010c684
:0205a00010c980
:0205a10010cc7c
:0205a20010ce79
:0205a30010d175
:0205a40010d471
:0205a50010d66e
:0205a60010d96a
:0205a70010dc66
:0205a80010de63
:0205a90010e15f
:0205aa0010e45b
:0205ab0010e658
:0205ac0010e954
:0205ad0010ec50
:0205ae0010ee4d
:0205af0010f149
:0205b00010f445
:0205b10010f642
:0205b20010f93e
:0205b30010fc3a
:0205b40010fe37
:0205b500110132
:0205b60011042e
:0205b70011062b
:0205b800110927
:0205b900110c23
:0205ba00110e20
:0205bb0011111c
:0205bc00111418
:0205bd00111615
:0205be00111911
:0205bf00111c0d
:0205c000111e0a
:0205c100112106
:0205c200112303
:0205c3001126ff
:0205c4001129fb
:0205c500112bf8
:0205c600112ef4
:0205c7001131f0
:0205c8001133ed
:0205c9001136e9
:0205ca001139e5
:0205cb00113be2
:0205cc00113ede
:0205cd001141da
:0205ce001143d7
:0205cf001146d3
:0205d0001149cf
:0205d100114bcc
:0205d200114ec8
:0205d3001150c5
:0205d4001153c1
:0205d5001156bd
:0205d6001158ba
:0205d700115bb6
:0205d800115eb2
:0205d9001160af
:0205da001163ab
:0205db001166a7
:0205dc001168a4
:0205dd00116ba0
:0205de00116d9d
:0205df00117099
:0205e000117395
:0205e100117592
:0205e20011788e
:0205e300117b8a
:0205e400117d87
:0205e500118083
:0205e60011837f
:0205e70011857c
:0205e800118878
:0205e900118a75
:0205ea00118d71
:0205eb0011906d
:0205ec0011926a
:0205ed00119566
:0205ee00119862
:0205ef00119a5f
:0205f000119d5b
:0205f100119f58
:0205f20011a254
:0205f30011a550
:0205f40011a74d
:0205f50011aa49
:0205f60011ad45
:0205f70011af42
:0205f80011b23e
:0205f90011b43b
:0205fa0011b737
:0205fb0011ba33
:0205fc0011bc30
:0205fd0011bf2c
:0205fe0011c129
:0205ff0011c425
:0206000011c720
:0206010011c91d
:0206020011cc19
:0206030011cf15
:0206040011d112
:0206050011d40e
:0206060011d60b
:0206070011d907
:0206080011dc03
:0206090011de00
:02060a0011e1fc
:02060b0011e3f9
:02060c0011e6f5
:02060d0011e9f1
:02060e0011ebee
:02060f0011eeea
:0206100011f0e7
:0206110011f3e3
:0206120011f6df
:0206130011f8dc
:0206140011fbd8
:0206150011fdd5
:020616001200d0
:020617001203cc
:020618001205c9
:020619001208c5
:02061a00120ac2
:02061b00120dbe
:02061c001210ba
:02061d001212b7
:02061e001215b3
:02061f001217b0
:02062000121aac
:02062100121ca9
:02062200121fa5
:020623001222a1
:0206240012249e
:0206250012279a
:02062600122997
:02062700122c93
:02062800122f8f
:0206290012318c
:02062a00123488
:02062b00123685
:02062c00123981
:02062d00123c7d
:02062e00123e7a
:02062f00124176
:02063000124373
:0206310012466f
:0206320012486c
:02063300124b68
:02063400124e64
:02063500125061
:0206360012535d
:0206370012555a
:02063800125856
:02063900125a53
:02063a00125d4f
:02063b0012604b
:02063c00126248
:02063d00126544
:02063e00126741
:02063f00126a3d
:02064000126c3a
:02064100126f36
:02064200127232
:0206430012742f
:0206440012772b
:02064500127928
:02064600127c24
:02064700127e21
:0206480012811d
:02064900128419
:02064a00128616
:02064b00128912
:02064c00128b0f
:02064d00128e0b
:02064e00129008
:02064f00129304
:02065000129501
:020651001298fd
:02065200129bf9
:02065300129df6
:0206540012a0f2
:0206550012a2ef
:0206560012a5eb
:0206570012a7e8
:0206580012aae4
:0206590012ace1
:02065a0012afdd
:02065b0012b2d9
:02065c0012b4d6
:02065d0012b7d2
:02065e0012b9cf
:02065f0012bccb
:0206600012bec8
:0206610012c1c4
:0206620012c3c1
:0206630012c6bd
:0206640012c8ba
:0206650012cbb6
:0206660012ceb2
:0206670012d0af
:0206680012d3ab
:0206690012d5a8
:02066a0012d8a4
:02066b0012daa1
:02066c0012dd9d
:02066d0012df9a
:02066e0012e296
:02066f0012e493
:0206700012e78f
:0206710012e98c
:0206720012ec88
:0206730012ef84
:0206740012f181
:0206750012f47d
:0206760012f67a
:0206770012f976
:0206780012fb73
:0206790012fe6f
:02067a0013006b
:02067b00130367
:02067c00130564
:02067d00130860
:02067e00130a5d
:02067f00130d59
:02068000130f56
:02068100131252
:0206820013144f
:0206830013174b
:02068400131948
:02068500131c44
:02068600131e41
:0206870013213d
:02068800132439
:02068900132636
:02068a00132932
:02068b00132b2f
:02068c00132e2b
:02068d00133028
:02068e00133324
:02068f00133521
:0206900013381d
:02069100133a1a
:02069200133d16
:02069300133f13
:0206940013420f
:0206950013440c
:02069600134708
:02069700134905
:02069800134c01
:02069900134efe
:02069a001351fa
:02069b001353f7
:02069c001356f3
:02069d001358f0
:02069e00135bec
:02069f00135de9
:0206a0001360e5
:0206a1001362e2
:0206a2001365de
:0206a3001367db
:0206a400136ad7
:0206a500136cd4
:0206a600136fd0
:0206a7001371cd
:0206a8001374c9
:0206a9001376c6
:0206aa001379c2
:0206ab00137bbf
:0206ac00137ebb
:0206ad001380b8
:0206ae001383b4
:0206af001385b1
:0206b0001388ad
:0206b100138aaa
:0206b200138da6
:0206b300138fa3
:0206b40013929f
:0206b50013949c
:0206b600139798
:0206b700139995
:0206b800139c91
:0206b900139e8e
:0206ba0013a08b
:0206bb0013a387
:0206bc0013a584
:0206bd0013a880
:0206be0013aa7d
:0206bf0013ad79
:0206c00013af76
:0206c10013b272
:0206c20013b46f
:0206c30013b76b
:0206c40013b968
:0206c50013bc64
:0206c60013be61
:0206c70013c15d
:0206c80013c35a
:0206c90013c656
:0206ca0013c853
:0206cb0013cb4f
:0206cc0013cd4c
:0206cd0013cf49
:0206ce0013d245
:0206cf0013d442
:0206d00013d73e
:0206d10013d93b
:0206d20013dc37
:0206d30013de34
:0206d40013e130
:0206d50013e32d
:0206d60013e629
:0206d70013e826
:0206d80013eb22
:0206d90013ed1f
:0206da0013ef1c
:0206db0013f218
:0206dc0013f415
:0206dd0013f711
:0206de0013f90e
:0206df0013fc0a
:0206e00013fe07
:0206e100140102
:0206e2001403ff
:0206e3001406fb
:0206e4001408f8
:0206e500140af5
:0206e600140df1
:0206e700140fee
:0206e8001412ea
:0206e9001414e7
:0206ea001417e3
:0206eb001419e0
:0206ec00141cdc
:0206ed00141ed9
:0206ee001420d6
:0206ef001423d2
:0206f0001425cf
:0206f1001428cb
:0206f200142ac8
:0206f300142dc4
:0206f400142fc1
:0206f5001432bd
:0206f6001434ba
:0206f7001436b7
:0206f8001439b3
:0206f900143bb0
:0206fa00143eac
:0206fb001440a9
:0206fc001443a5
:0206fd001445a2
:0206fe0014479f
:0206ff00144a9b
:02070000144c97
:02070100144f93
:02070200145190
:0207030014548c
:02070400145689
:02070500145886
:02070600145b82
:02070700145d7f
:0207080014607b
:02070900146278
:02070a00146574
:02070b00146771
:02070c0014696e
:02070d00146c6a
:02070e00146e67
:02070f00147163
:02071000147360
:0207110014755d
:02071200147859
:02071300147a56
:02071400147d52
:02071500147f4f
:0207160014824b
:02071700148448
:02071800148645
:02071900148941
:02071a00148b3e
:02071b00148e3a
:02071c00149037
:02071d00149234
:02071e00149530
:02071f0014972d
:02072000149a29
:02072100149c26
:02072200149e23
:0207230014a11f
:0207240014a31c
:0207250014a618
:0207260014a815
:0207270014aa12
:0207280014ad0e
:0207290014af0b
:02072a0014b207
:02072b0014b404
:02072c0014b601
:02072d0014b9fd
:02072e0014bbfa
:02072f0014bef6
:0207300014c0f3
:0207310014c2f0
:0207320014c5ec
:0207330014c7e9
:0207340014cae5
:0207350014cce2
:0207360014cedf
:0207370014d1db
:0207380014d3d8
:0207390014d5d5
:02073a0014d8d1
:02073b0014dace
:02073c0014ddca
:02073d0014dfc7
:02073e0014e1c4
:02073f0014e4c0
:0207400014e6bd
:0207410014e9b9
:0207420014ebb6
:0207430014edb3
:0207440014f0af
:0207450014f2ac
:0207460014f4a9
:0207470014f7a5
:0207480014f9a2
:0207490014fc9e
:02074a0014fe9b
:02074b00150097
:02074c00150393
:02074d00150590
:02074e0015078d
:02074f00150a89
:02075000150c86
:02075100150e83
:0207520015117f
:0207530015137c
:02075400151678
:02075500151875
:02075600151a72
:02075700151d6e
:02075800151f6b
:02075900152168
:02075a00152464
:02075b00152661
:02075c0015285e
:02075d00152b5a
:02075e00152d57
:02075f00152f54
:02076000153250
:0207610015344d
:02076200153749
:02076300153946
:02076400153b43
:02076500153e3f
:0207660015403c
:02076700154239
:02076800154535
:02076900154732
:02076a0015492f
:02076b00154c2b
:02076c00154e28
:02076d00155025
:02076e00155321
:02076f0015551e
:0207700015571b
:02077100155a17
:02077200155c14
:02077300155e11
:0207740015610d
:0207750015630a
:02077600156507
:02077700156803
:02077800156a00
:02077900156cfd
:02077a00156ff9
:02077b001571f6
:02077c001573f3
:02077d001576ef
:02077e001578ec
:02077f00157ae9
:02078000157de5
:02078100157fe2
:020782001581df
:020783001584db
:020784001586d8
:020785001588d5
:02078600158bd1
:02078700158dce
:02078800158fcb
:020789001592c7
:02078a001594c4
:02078b001596c1
:02078c001599bd
:02078d00159bba
:02078e00159db7
:02078f0015a0b3
:0207900015a2b0
:0207910015a4ad
:0207920015a7a9
:0207930015a9a6
:0207940015aba3
:0207950015ada0
:0207960015b09c
:0207970015b299
:0207980015b496
:0207990015b792
:02079a0015b98f
:02079b0015bb8c
:02079c0015be88
:02079d0015c085
:02079e0015c282
:02079f0015c57e
:0207a00015c77b
:0207a10015c978
:0207a20015cb75
:0207a30015ce71
:0207a40015d06e
:0207a50015d26b
:0207a60015d567
:0207a70015d764
:0207a80015d961
:0207a90015db5e
:0207aa0015de5a
:0207ab0015e057
:0207ac0015e254
:0207ad0015e550
:0207ae0015e74d
:0207af0015e94a
:0207b00015ec46
:0207b10015ee43
:0207b20015f040
:0207b30015f23d
:0207b40015f539
:0207b50015f736
:0207b60015f933
:0207b70015fc2f
:0207b80015fe2c
:0207b900160028
:0207ba00160225
:0207bb00160521
:0207bc0016071e
:0207bd0016091b
:0207be00160b18
:0207bf00160e14
:0207c000161011
:0207c10016120e
:0207c20016150a
:0207c300161707
:0207c400161904
:0207c500161b01
:0207c600161efd
:0207c7001620fa
:0207c8001622f7
:0207c9001624f4
:0207ca001627f0
:0207cb001629ed
:0207cc00162bea
:0207cd00162ee6
:0207ce001630e3
:0207cf001632e0
:0207d0001634dd
:0207d1001637d9
:0207d2001639d6
:0207d300163bd3
:0207d400163dd0
:0207d5001640cc
:0207d6001642c9
:0207d7001644c6
:0207d8001646c3
:0207d9001649bf
:0207da00164bbc
:0207db00164db9
:0207dc00164fb6
:0207dd001652b2
:0207de001654af
:0207df001656ac
:0207e0001658a9
:0207e100165ba5
:0207e200165da2
:0207e300165f9f
:0207e40016619c
:0207e500166498
:0207e600166695
:0207e700166892
:0207e800166a8f
:0207e900166d8b
:0207ea00166f88
:0207eb00167185
:0207ec00167382
:0207ed0016767e
:0207ee0016787b
:0207ef00167a78
:0207f000167c75
:0207f100167e72
:0207f20016816e
:0207f30016836b
:0207f400168568
:0207f500168765
:0207f600168a61
:0207f700168c5e
:0207f800168e5b
:0207f900169058
:0207fa00169354
:0207fb00169551
:0207fc0016974e
:0207fd0016994b
:0207fe00169b48
:0207ff00169e44
:00000001FF
