:020000001fffe0
:020001001fffdf
:020002001fffde
:020003001fffdd
:020004001fffdc
:020005001fffdb
:020006001fffda
:020007001fffd9
:020008001fffd8
:020009001fffd7
:02000a001fffd6
:02000b001fffd5
:02000c001fffd4
:02000d001fffd3
:02000e001fffd2
:02000f001fffd1
:020010001fffd0
:020011001fffcf
:020012001fffce
:020013001fffcd
:020014001fffcc
:020015001fffcb
:020016001fffca
:020017001fffc9
:020018001fffc8
:020019001fffc7
:02001a001fffc6
:02001b001fffc5
:02001c001fffc4
:02001d001ffec4
:02001e001ffec3
:02001f001ffec2
:020020001ffec1
:020021001ffec0
:020022001ffebf
:020023001ffebe
:020024001ffebd
:020025001ffebc
:020026001ffebb
:020027001ffeba
:020028001ffeb9
:020029001ffeb8
:02002a001ffeb7
:02002b001ffeb6
:02002c001ffeb5
:02002d001ffeb4
:02002e001ffeb3
:02002f001ffeb2
:020030001ffeb1
:020031001ffeb0
:020032001ffdb0
:020033001ffdaf
:020034001ffdae
:020035001ffdad
:020036001ffdac
:020037001ffdab
:020038001ffdaa
:020039001ffda9
:02003a001ffda8
:02003b001ffda7
:02003c001ffda6
:02003d001ffda5
:02003e001ffda4
:02003f001ffda3
:020040001ffda2
:020041001ffca2
:020042001ffca1
:020043001ffca0
:020044001ffc9f
:020045001ffc9e
:020046001ffc9d
:020047001ffc9c
:020048001ffc9b
:020049001ffc9a
:02004a001ffc99
:02004b001ffc98
:02004c001ffc97
:02004d001ffb97
:02004e001ffb96
:02004f001ffb95
:020050001ffb94
:020051001ffb93
:020052001ffb92
:020053001ffb91
:020054001ffb90
:020055001ffb8f
:020056001ffb8e
:020057001ffa8e
:020058001ffa8d
:020059001ffa8c
:02005a001ffa8b
:02005b001ffa8a
:02005c001ffa89
:02005d001ffa88
:02005e001ffa87
:02005f001ffa86
:020060001ff986
:020061001ff985
:020062001ff984
:020063001ff983
:020064001ff982
:020065001ff981
:020066001ff980
:020067001ff97f
:020068001ff87f
:020069001ff87e
:02006a001ff87d
:02006b001ff87c
:02006c001ff87b
:02006d001ff87a
:02006e001ff879
:02006f001ff878
:020070001ff778
:020071001ff777
:020072001ff776
:020073001ff775
:020074001ff774
:020075001ff773
:020076001ff772
:020077001ff672
:020078001ff671
:020079001ff670
:02007a001ff66f
:02007b001ff66e
:02007c001ff66d
:02007d001ff66c
:02007e001ff56c
:02007f001ff56b
:020080001ff56a
:020081001ff569
:020082001ff568
:020083001ff567
:020084001ff566
:020085001ff466
:020086001ff465
:020087001ff464
:020088001ff463
:020089001ff462
:02008a001ff461
:02008b001ff361
:02008c001ff360
:02008d001ff35f
:02008e001ff35e
:02008f001ff35d
:020090001ff35c
:020091001ff25c
:020092001ff25b
:020093001ff25a
:020094001ff259
:020095001ff258
:020096001ff158
:020097001ff157
:020098001ff156
:020099001ff155
:02009a001ff154
:02009b001ff153
:02009c001ff053
:02009d001ff052
:02009e001ff051
:02009f001ff050
:0200a0001ff04f
:0200a1001fef4f
:0200a2001fef4e
:0200a3001fef4d
:0200a4001fef4c
:0200a5001fef4b
:0200a6001fee4b
:0200a7001fee4a
:0200a8001fee49
:0200a9001fee48
:0200aa001fee47
:0200ab001fed47
:0200ac001fed46
:0200ad001fed45
:0200ae001fed44
:0200af001fed43
:0200b0001fec43
:0200b1001fec42
:0200b2001fec41
:0200b3001fec40
:0200b4001feb40
:0200b5001feb3f
:0200b6001feb3e
:0200b7001feb3d
:0200b8001feb3c
:0200b9001fea3c
:0200ba001fea3b
:0200bb001fea3a
:0200bc001fea39
:0200bd001fe939
:0200be001fe938
:0200bf001fe937
:0200c0001fe936
:0200c1001fe935
:0200c2001fe835
:0200c3001fe834
:0200c4001fe833
:0200c5001fe832
:0200c6001fe732
:0200c7001fe731
:0200c8001fe730
:0200c9001fe72f
:0200ca001fe62f
:0200cb001fe62e
:0200cc001fe62d
:0200cd001fe62c
:0200ce001fe52c
:0200cf001fe52b
:0200d0001fe52a
:0200d1001fe529
:0200d2001fe429
:0200d3001fe428
:0200d4001fe427
:0200d5001fe426
:0200d6001fe326
:0200d7001fe325
:0200d8001fe324
:0200d9001fe323
:0200da001fe223
:0200db001fe222
:0200dc001fe221
:0200dd001fe220
:0200de001fe120
:0200df001fe11f
:0200e0001fe11e
:0200e1001fe11d
:0200e2001fe01d
:0200e3001fe01c
:0200e4001fe01b
:0200e5001fdf1b
:0200e6001fdf1a
:0200e7001fdf19
:0200e8001fdf18
:0200e9001fde18
:0200ea001fde17
:0200eb001fde16
:0200ec001fdd16
:0200ed001fdd15
:0200ee001fdd14
:0200ef001fdd13
:0200f0001fdc13
:0200f1001fdc12
:0200f2001fdc11
:0200f3001fdb11
:0200f4001fdb10
:0200f5001fdb0f
:0200f6001fdb0e
:0200f7001fda0e
:0200f8001fda0d
:0200f9001fda0c
:0200fa001fd90c
:0200fb001fd90b
:0200fc001fd90a
:0200fd001fd80a
:0200fe001fd809
:0200ff001fd808
:020100001fd806
:020101001fd706
:020102001fd705
:020103001fd704
:020104001fd604
:020105001fd603
:020106001fd602
:020107001fd502
:020108001fd501
:020109001fd500
:02010a001fd400
:02010b001fd4ff
:02010c001fd4fe
:02010d001fd3fe
:02010e001fd3fd
:02010f001fd3fc
:020110001fd2fc
:020111001fd2fb
:020112001fd2fa
:020113001fd1fa
:020114001fd1f9
:020115001fd1f8
:020116001fd0f8
:020117001fd0f7
:020118001fd0f6
:020119001fcff6
:02011a001fcff5
:02011b001fcff4
:02011c001fcef4
:02011d001fcef3
:02011e001fcef2
:02011f001fcdf2
:020120001fcdf1
:020121001fcdf0
:020122001fccf0
:020123001fccef
:020124001fccee
:020125001fcbee
:020126001fcbed
:020127001fcbec
:020128001fcaec
:020129001fcaeb
:02012a001fcaea
:02012b001fc9ea
:02012c001fc9e9
:02012d001fc8e9
:02012e001fc8e8
:02012f001fc8e7
:020130001fc7e7
:020131001fc7e6
:020132001fc7e5
:020133001fc6e5
:020134001fc6e4
:020135001fc6e3
:020136001fc5e3
:020137001fc5e2
:020138001fc4e2
:020139001fc4e1
:02013a001fc4e0
:02013b001fc3e0
:02013c001fc3df
:02013d001fc3de
:02013e001fc2de
:02013f001fc2dd
:020140001fc1dd
:020141001fc1dc
:020142001fc1db
:020143001fc0db
:020144001fc0da
:020145001fbfda
:020146001fbfd9
:020147001fbfd8
:020148001fbed8
:020149001fbed7
:02014a001fbdd7
:02014b001fbdd6
:02014c001fbdd5
:02014d001fbcd5
:02014e001fbcd4
:02014f001fbbd4
:020150001fbbd3
:020151001fbbd2
:020152001fbad2
:020153001fbad1
:020154001fb9d1
:020155001fb9d0
:020156001fb9cf
:020157001fb8cf
:020158001fb8ce
:020159001fb7ce
:02015a001fb7cd
:02015b001fb7cc
:02015c001fb6cc
:02015d001fb6cb
:02015e001fb5cb
:02015f001fb5ca
:020160001fb4ca
:020161001fb4c9
:020162001fb4c8
:020163001fb3c8
:020164001fb3c7
:020165001fb2c7
:020166001fb2c6
:020167001fb1c6
:020168001fb1c5
:020169001fb1c4
:02016a001fb0c4
:02016b001fb0c3
:02016c001fafc3
:02016d001fafc2
:02016e001faec2
:02016f001faec1
:020170001faec0
:020171001fadc0
:020172001fadbf
:020173001facbf
:020174001facbe
:020175001fabbe
:020176001fabbd
:020177001faabd
:020178001faabc
:020179001faabb
:02017a001fa9bb
:02017b001fa9ba
:02017c001fa8ba
:02017d001fa8b9
:02017e001fa7b9
:02017f001fa7b8
:020180001fa6b8
:020181001fa6b7
:020182001fa5b7
:020183001fa5b6
:020184001fa4b6
:020185001fa4b5
:020186001fa4b4
:020187001fa3b4
:020188001fa3b3
:020189001fa2b3
:02018a001fa2b2
:02018b001fa1b2
:02018c001fa1b1
:02018d001fa0b1
:02018e001fa0b0
:02018f001f9fb0
:020190001f9faf
:020191001f9eaf
:020192001f9eae
:020193001f9dae
:020194001f9dad
:020195001f9cad
:020196001f9cac
:020197001f9bac
:020198001f9bab
:020199001f9aab
:02019a001f9aaa
:02019b001f99aa
:02019c001f99a9
:02019d001f98a9
:02019e001f98a8
:02019f001f97a8
:0201a0001f97a7
:0201a1001f96a7
:0201a2001f96a6
:0201a3001f95a6
:0201a4001f95a5
:0201a5001f94a5
:0201a6001f94a4
:0201a7001f93a4
:0201a8001f93a3
:0201a9001f92a3
:0201aa001f92a2
:0201ab001f91a2
:0201ac001f91a1
:0201ad001f90a1
:0201ae001f90a0
:0201af001f8fa0
:0201b0001f8f9f
:0201b1001f8e9f
:0201b2001f8e9e
:0201b3001f8d9e
:0201b4001f8d9d
:0201b5001f8c9d
:0201b6001f8c9c
:0201b7001f8b9c
:0201b8001f8b9b
:0201b9001f8a9b
:0201ba001f8a9a
:0201bb001f899a
:0201bc001f8999
:0201bd001f8899
:0201be001f8799
:0201bf001f8798
:0201c0001f8698
:0201c1001f8697
:0201c2001f8597
:0201c3001f8596
:0201c4001f8496
:0201c5001f8495
:0201c6001f8395
:0201c7001f8394
:0201c8001f8294
:0201c9001f8293
:0201ca001f8193
:0201cb001f8093
:0201cc001f8092
:0201cd001f7f92
:0201ce001f7f91
:0201cf001f7e91
:0201d0001f7e90
:0201d1001f7d90
:0201d2001f7d8f
:0201d3001f7c8f
:0201d4001f7b8f
:0201d5001f7b8e
:0201d6001f7a8e
:0201d7001f7a8d
:0201d8001f798d
:0201d9001f798c
:0201da001f788c
:0201db001f778c
:0201dc001f778b
:0201dd001f768b
:0201de001f768a
:0201df001f758a
:0201e0001f7589
:0201e1001f7489
:0201e2001f7389
:0201e3001f7388
:0201e4001f7288
:0201e5001f7287
:0201e6001f7187
:0201e7001f7186
:0201e8001f7086
:0201e9001f6f86
:0201ea001f6f85
:0201eb001f6e85
:0201ec001f6e84
:0201ed001f6d84
:0201ee001f6c84
:0201ef001f6c83
:0201f0001f6b83
:0201f1001f6b82
:0201f2001f6a82
:0201f3001f6982
:0201f4001f6981
:0201f5001f6881
:0201f6001f6880
:0201f7001f6780
:0201f8001f6680
:0201f9001f667f
:0201fa001f657f
:0201fb001f657e
:0201fc001f647e
:0201fd001f637e
:0201fe001f637d
:0201ff001f627d
:020200001f627b
:020201001f617b
:020202001f607b
:020203001f607a
:020204001f5f7a
:020205001f5f79
:020206001f5e79
:020207001f5d79
:020208001f5d78
:020209001f5c78
:02020a001f5b78
:02020b001f5b77
:02020c001f5a77
:02020d001f5a76
:02020e001f5976
:02020f001f5876
:020210001f5875
:020211001f5775
:020212001f5675
:020213001f5674
:020214001f5574
:020215001f5474
:020216001f5473
:020217001f5373
:020218001f5372
:020219001f5272
:02021a001f5172
:02021b001f5171
:02021c001f5071
:02021d001f4f71
:02021e001f4f70
:02021f001f4e70
:020220001f4d70
:020221001f4d6f
:020222001f4c6f
:020223001f4b6f
:020224001f4b6e
:020225001f4a6e
:020226001f496e
:020227001f496d
:020228001f486d
:020229001f476d
:02022a001f476c
:02022b001f466c
:02022c001f466b
:02022d001f456b
:02022e001f446b
:02022f001f446a
:020230001f436a
:020231001f426a
:020232001f416a
:020233001f4169
:020234001f4069
:020235001f3f69
:020236001f3f68
:020237001f3e68
:020238001f3d68
:020239001f3d67
:02023a001f3c67
:02023b001f3b67
:02023c001f3b66
:02023d001f3a66
:02023e001f3966
:02023f001f3965
:020240001f3865
:020241001f3765
:020242001f3764
:020243001f3664
:020244001f3564
:020245001f3563
:020246001f3463
:020247001f3363
:020248001f3263
:020249001f3262
:02024a001f3162
:02024b001f3062
:02024c001f3061
:02024d001f2f61
:02024e001f2e61
:02024f001f2e60
:020250001f2d60
:020251001f2c60
:020252001f2b60
:020253001f2b5f
:020254001f2a5f
:020255001f295f
:020256001f295e
:020257001f285e
:020258001f275e
:020259001f265e
:02025a001f265d
:02025b001f255d
:02025c001f245d
:02025d001f245c
:02025e001f235c
:02025f001f225c
:020260001f215c
:020261001f215b
:020262001f205b
:020263001f1f5b
:020264001f1e5b
:020265001f1e5a
:020266001f1d5a
:020267001f1c5a
:020268001f1c59
:020269001f1b59
:02026a001f1a59
:02026b001f1959
:02026c001f1958
:02026d001f1858
:02026e001f1758
:02026f001f1658
:020270001f1657
:020271001f1557
:020272001f1457
:020273001f1357
:020274001f1356
:020275001f1256
:020276001f1156
:020277001f1056
:020278001f1055
:020279001f0f55
:02027a001f0e55
:02027b001f0d55
:02027c001f0d54
:02027d001f0c54
:02027e001f0b54
:02027f001f0a54
:020280001f0a53
:020281001f0953
:020282001f0853
:020283001f0753
:020284001f0653
:020285001f0652
:020286001f0552
:020287001f0452
:020288001f0352
:020289001f0351
:02028a001f0251
:02028b001f0151
:02028c001f0051
:02028d001f0050
:02028e001eff51
:02028f001efe51
:020290001efd51
:020291001efc51
:020292001efc50
:020293001efb50
:020294001efa50
:020295001ef950
:020296001ef850
:020297001ef84f
:020298001ef74f
:020299001ef64f
:02029a001ef54f
:02029b001ef44f
:02029c001ef44e
:02029d001ef34e
:02029e001ef24e
:02029f001ef14e
:0202a0001ef14d
:0202a1001ef04d
:0202a2001eef4d
:0202a3001eee4d
:0202a4001eed4d
:0202a5001eec4d
:0202a6001eec4c
:0202a7001eeb4c
:0202a8001eea4c
:0202a9001ee94c
:0202aa001ee84c
:0202ab001ee84b
:0202ac001ee74b
:0202ad001ee64b
:0202ae001ee54b
:0202af001ee44b
:0202b0001ee44a
:0202b1001ee34a
:0202b2001ee24a
:0202b3001ee14a
:0202b4001ee04a
:0202b5001edf4a
:0202b6001edf49
:0202b7001ede49
:0202b8001edd49
:0202b9001edc49
:0202ba001edb49
:0202bb001eda49
:0202bc001eda48
:0202bd001ed948
:0202be001ed848
:0202bf001ed748
:0202c0001ed648
:0202c1001ed548
:0202c2001ed547
:0202c3001ed447
:0202c4001ed347
:0202c5001ed247
:0202c6001ed147
:0202c7001ed047
:0202c8001ed046
:0202c9001ecf46
:0202ca001ece46
:0202cb001ecd46
:0202cc001ecc46
:0202cd001ecb46
:0202ce001eca46
:0202cf001eca45
:0202d0001ec945
:0202d1001ec845
:0202d2001ec745
:0202d3001ec645
:0202d4001ec545
:0202d5001ec445
:0202d6001ec444
:0202d7001ec344
:0202d8001ec244
:0202d9001ec144
:0202da001ec044
:0202db001ebf44
:0202dc001ebe44
:0202dd001ebe43
:0202de001ebd43
:0202df001ebc43
:0202e0001ebb43
:0202e1001eba43
:0202e2001eb943
:0202e3001eb843
:0202e4001eb743
:0202e5001eb643
:0202e6001eb642
:0202e7001eb542
:0202e8001eb442
:0202e9001eb342
:0202ea001eb242
:0202eb001eb142
:0202ec001eb042
:0202ed001eaf42
:0202ee001eaf41
:0202ef001eae41
:0202f0001ead41
:0202f1001eac41
:0202f2001eab41
:0202f3001eaa41
:0202f4001ea941
:0202f5001ea841
:0202f6001ea741
:0202f7001ea641
:0202f8001ea640
:0202f9001ea540
:0202fa001ea440
:0202fb001ea340
:0202fc001ea240
:0202fd001ea140
:0202fe001ea040
:0202ff001e9f40
:020300001e9e3f
:020301001e9d3f
:020302001e9c3f
:020303001e9c3e
:020304001e9b3e
:020305001e9a3e
:020306001e993e
:020307001e983e
:020308001e973e
:020309001e963e
:02030a001e953e
:02030b001e943e
:02030c001e933e
:02030d001e923e
:02030e001e913e
:02030f001e903e
:020310001e903d
:020311001e8f3d
:020312001e8e3d
:020313001e8d3d
:020314001e8c3d
:020315001e8b3d
:020316001e8a3d
:020317001e893d
:020318001e883d
:020319001e873d
:02031a001e863d
:02031b001e853d
:02031c001e843d
:02031d001e833d
:02031e001e823d
:02031f001e813d
:020320001e813c
:020321001e803c
:020322001e7f3c
:020323001e7e3c
:020324001e7d3c
:020325001e7c3c
:020326001e7b3c
:020327001e7a3c
:020328001e793c
:020329001e783c
:02032a001e773c
:02032b001e763c
:02032c001e753c
:02032d001e743c
:02032e001e733c
:02032f001e723c
:020330001e713c
:020331001e703c
:020332001e6f3c
:020333001e6e3c
:020334001e6d3c
:020335001e6c3c
:020336001e6b3c
:020337001e6a3c
:020338001e693c
:020339001e683c
:02033a001e673c
:02033b001e663c
:02033c001e663b
:02033d001e653b
:02033e001e643b
:02033f001e633b
:020340001e623b
:020341001e613b
:020342001e603b
:020343001e5f3b
:020344001e5e3b
:020345001e5d3b
:020346001e5c3b
:020347001e5b3b
:020348001e5a3b
:020349001e593b
:02034a001e583b
:02034b001e573b
:02034c001e563b
:02034d001e553b
:02034e001e543b
:02034f001e533b
:020350001e523b
:020351001e513b
:020352001e503b
:020353001e4f3b
:020354001e4e3b
:020355001e4d3b
:020356001e4c3b
:020357001e4b3b
:020358001e4a3b
:020359001e493b
:02035a001e483b
:02035b001e473b
:02035c001e463b
:02035d001e453b
:02035e001e443b
:02035f001e423c
:020360001e413c
:020361001e403c
:020362001e3f3c
:020363001e3e3c
:020364001e3d3c
:020365001e3c3c
:020366001e3b3c
:020367001e3a3c
:020368001e393c
:020369001e383c
:02036a001e373c
:02036b001e363c
:02036c001e353c
:02036d001e343c
:02036e001e333c
:02036f001e323c
:020370001e313c
:020371001e303c
:020372001e2f3c
:020373001e2e3c
:020374001e2d3c
:020375001e2c3c
:020376001e2b3c
:020377001e2a3c
:020378001e293c
:020379001e283c
:02037a001e273c
:02037b001e253d
:02037c001e243d
:02037d001e233d
:02037e001e223d
:02037f001e213d
:020380001e203d
:020381001e1f3d
:020382001e1e3d
:020383001e1d3d
:020384001e1c3d
:020385001e1b3d
:020386001e1a3d
:020387001e193d
:020388001e183d
:020389001e173d
:02038a001e163d
:02038b001e143e
:02038c001e133e
:02038d001e123e
:02038e001e113e
:02038f001e103e
:020390001e0f3e
:020391001e0e3e
:020392001e0d3e
:020393001e0c3e
:020394001e0b3e
:020395001e0a3e
:020396001e093e
:020397001e083e
:020398001e063f
:020399001e053f
:02039a001e043f
:02039b001e033f
:02039c001e023f
:02039d001e013f
:02039e001e003f
:02039f001dff40
:0203a0001dfe40
:0203a1001dfd40
:0203a2001dfc40
:0203a3001dfa41
:0203a4001df941
:0203a5001df841
:0203a6001df741
:0203a7001df641
:0203a8001df541
:0203a9001df441
:0203aa001df341
:0203ab001df241
:0203ac001df141
:0203ad001def42
:0203ae001dee42
:0203af001ded42
:0203b0001dec42
:0203b1001deb42
:0203b2001dea42
:0203b3001de942
:0203b4001de842
:0203b5001de742
:0203b6001de543
:0203b7001de443
:0203b8001de343
:0203b9001de243
:0203ba001de143
:0203bb001de043
:0203bc001ddf43
:0203bd001dde43
:0203be001ddc44
:0203bf001ddb44
:0203c0001dda44
:0203c1001dd944
:0203c2001dd844
:0203c3001dd744
:0203c4001dd644
:0203c5001dd445
:0203c6001dd345
:0203c7001dd245
:0203c8001dd145
:0203c9001dd045
:0203ca001dcf45
:0203cb001dce45
:0203cc001dcc46
:0203cd001dcb46
:0203ce001dca46
:0203cf001dc946
:0203d0001dc846
:0203d1001dc746
:0203d2001dc646
:0203d3001dc447
:0203d4001dc347
:0203d5001dc247
:0203d6001dc147
:0203d7001dc047
:0203d8001dbf47
:0203d9001dbe47
:0203da001dbc48
:0203db001dbb48
:0203dc001dba48
:0203dd001db948
:0203de001db848
:0203df001db748
:0203e0001db549
:0203e1001db449
:0203e2001db349
:0203e3001db249
:0203e4001db149
:0203e5001db049
:0203e6001dae4a
:0203e7001dad4a
:0203e8001dac4a
:0203e9001dab4a
:0203ea001daa4a
:0203eb001da84b
:0203ec001da74b
:0203ed001da64b
:0203ee001da54b
:0203ef001da44b
:0203f0001da34b
:0203f1001da14c
:0203f2001da04c
:0203f3001d9f4c
:0203f4001d9e4c
:0203f5001d9d4c
:0203f6001d9b4d
:0203f7001d9a4d
:0203f8001d994d
:0203f9001d984d
:0203fa001d974d
:0203fb001d954e
:0203fc001d944e
:0203fd001d934e
:0203fe001d924e
:0203ff001d914e
:020400001d8f4e
:020401001d8e4e
:020402001d8d4e
:020403001d8c4e
:020404001d8b4e
:020405001d894f
:020406001d884f
:020407001d874f
:020408001d864f
:020409001d854f
:02040a001d8350
:02040b001d8250
:02040c001d8150
:02040d001d8050
:02040e001d7f50
:02040f001d7d51
:020410001d7c51
:020411001d7b51
:020412001d7a51
:020413001d7852
:020414001d7752
:020415001d7652
:020416001d7552
:020417001d7452
:020418001d7253
:020419001d7153
:02041a001d7053
:02041b001d6f53
:02041c001d6d54
:02041d001d6c54
:02041e001d6b54
:02041f001d6a54
:020420001d6855
:020421001d6755
:020422001d6655
:020423001d6555
:020424001d6455
:020425001d6256
:020426001d6156
:020427001d6056
:020428001d5f56
:020429001d5d57
:02042a001d5c57
:02042b001d5b57
:02042c001d5a57
:02042d001d5858
:02042e001d5758
:02042f001d5658
:020430001d5558
:020431001d5359
:020432001d5259
:020433001d5159
:020434001d4f5a
:020435001d4e5a
:020436001d4d5a
:020437001d4c5a
:020438001d4a5b
:020439001d495b
:02043a001d485b
:02043b001d475b
:02043c001d455c
:02043d001d445c
:02043e001d435c
:02043f001d425c
:020440001d405d
:020441001d3f5d
:020442001d3e5d
:020443001d3c5e
:020444001d3b5e
:020445001d3a5e
:020446001d395e
:020447001d375f
:020448001d365f
:020449001d355f
:02044a001d345f
:02044b001d3260
:02044c001d3160
:02044d001d3060
:02044e001d2e61
:02044f001d2d61
:020450001d2c61
:020451001d2a62
:020452001d2962
:020453001d2862
:020454001d2762
:020455001d2563
:020456001d2463
:020457001d2363
:020458001d2164
:020459001d2064
:02045a001d1f64
:02045b001d1e64
:02045c001d1c65
:02045d001d1b65
:02045e001d1a65
:02045f001d1866
:020460001d1766
:020461001d1666
:020462001d1467
:020463001d1367
:020464001d1267
:020465001d1068
:020466001d0f68
:020467001d0e68
:020468001d0c69
:020469001d0b69
:02046a001d0a69
:02046b001d0969
:02046c001d076a
:02046d001d066a
:02046e001d056a
:02046f001d036b
:020470001d026b
:020471001d016b
:020472001cff6d
:020473001cfe6d
:020474001cfd6d
:020475001cfb6e
:020476001cfa6e
:020477001cf96e
:020478001cf76f
:020479001cf66f
:02047a001cf56f
:02047b001cf370
:02047c001cf270
:02047d001cf170
:02047e001cef71
:02047f001cee71
:020480001ced71
:020481001ceb72
:020482001cea72
:020483001ce972
:020484001ce773
:020485001ce673
:020486001ce474
:020487001ce374
:020488001ce274
:020489001ce075
:02048a001cdf75
:02048b001cde75
:02048c001cdc76
:02048d001cdb76
:02048e001cda76
:02048f001cd877
:020490001cd777
:020491001cd677
:020492001cd478
:020493001cd378
:020494001cd179
:020495001cd079
:020496001ccf79
:020497001ccd7a
:020498001ccc7a
:020499001ccb7a
:02049a001cc97b
:02049b001cc87b
:02049c001cc77b
:02049d001cc57c
:02049e001cc47c
:02049f001cc27d
:0204a0001cc17d
:0204a1001cc07d
:0204a2001cbe7e
:0204a3001cbd7e
:0204a4001cbc7e
:0204a5001cba7f
:0204a6001cb97f
:0204a7001cb780
:0204a8001cb680
:0204a9001cb580
:0204aa001cb381
:0204ab001cb281
:0204ac001cb082
:0204ad001caf82
:0204ae001cae82
:0204af001cac83
:0204b0001cab83
:0204b1001ca984
:0204b2001ca884
:0204b3001ca784
:0204b4001ca585
:0204b5001ca485
:0204b6001ca286
:0204b7001ca186
:0204b8001ca086
:0204b9001c9e87
:0204ba001c9d87
:0204bb001c9b88
:0204bc001c9a88
:0204bd001c9988
:0204be001c9789
:0204bf001c9689
:0204c0001c948a
:0204c1001c938a
:0204c2001c928a
:0204c3001c908b
:0204c4001c8f8b
:0204c5001c8d8c
:0204c6001c8c8c
:0204c7001c8a8d
:0204c8001c898d
:0204c9001c888d
:0204ca001c868e
:0204cb001c858e
:0204cc001c838f
:0204cd001c828f
:0204ce001c818f
:0204cf001c7f90
:0204d0001c7e90
:0204d1001c7c91
:0204d2001c7b91
:0204d3001c7992
:0204d4001c7892
:0204d5001c7792
:0204d6001c7593
:0204d7001c7493
:0204d8001c7294
:0204d9001c7194
:0204da001c6f95
:0204db001c6e95
:0204dc001c6c96
:0204dd001c6b96
:0204de001c6a96
:0204df001c6897
:0204e0001c6797
:0204e1001c6598
:0204e2001c6498
:0204e3001c6299
:0204e4001c6199
:0204e5001c5f9a
:0204e6001c5e9a
:0204e7001c5d9a
:0204e8001c5b9b
:0204e9001c5a9b
:0204ea001c589c
:0204eb001c579c
:0204ec001c559d
:0204ed001c549d
:0204ee001c529e
:0204ef001c519e
:0204f0001c4f9f
:0204f1001c4e9f
:0204f2001c4ca0
:0204f3001c4ba0
:0204f4001c4aa0
:0204f5001c48a1
:0204f6001c47a1
:0204f7001c45a2
:0204f8001c44a2
:0204f9001c42a3
:0204fa001c41a3
:0204fb001c3fa4
:0204fc001c3ea4
:0204fd001c3ca5
:0204fe001c3ba5
:0204ff001c39a6
:020500001c38a5
:020501001c36a6
:020502001c35a6
:020503001c33a7
:020504001c32a7
:020505001c30a8
:020506001c2fa8
:020507001c2da9
:020508001c2ca9
:020509001c2aaa
:02050a001c29aa
:02050b001c27ab
:02050c001c26ab
:02050d001c24ac
:02050e001c23ac
:02050f001c21ad
:020510001c20ad
:020511001c1eae
:020512001c1dae
:020513001c1baf
:020514001c1aaf
:020515001c18b0
:020516001c17b0
:020517001c15b1
:020518001c14b1
:020519001c12b2
:02051a001c11b2
:02051b001c0fb3
:02051c001c0eb3
:02051d001c0cb4
:02051e001c0bb4
:02051f001c09b5
:020520001c08b5
:020521001c06b6
:020522001c05b6
:020523001c03b7
:020524001c02b7
:020525001c00b8
:020526001bffb9
:020527001bfdba
:020528001bfcba
:020529001bfabb
:02052a001bf9bb
:02052b001bf7bc
:02052c001bf6bc
:02052d001bf4bd
:02052e001bf3bd
:02052f001bf1be
:020530001bf0be
:020531001beebf
:020532001becc0
:020533001bebc0
:020534001be9c1
:020535001be8c1
:020536001be6c2
:020537001be5c2
:020538001be3c3
:020539001be2c3
:02053a001be0c4
:02053b001bdfc4
:02053c001bddc5
:02053d001bdcc5
:02053e001bdac6
:02053f001bd8c7
:020540001bd7c7
:020541001bd5c8
:020542001bd4c8
:020543001bd2c9
:020544001bd1c9
:020545001bcfca
:020546001bceca
:020547001bcccb
:020548001bcacc
:020549001bc9cc
:02054a001bc7cd
:02054b001bc6cd
:02054c001bc4ce
:02054d001bc3ce
:02054e001bc1cf
:02054f001bc0cf
:020550001bbed0
:020551001bbcd1
:020552001bbbd1
:020553001bb9d2
:020554001bb8d2
:020555001bb6d3
:020556001bb5d3
:020557001bb3d4
:020558001bb1d5
:020559001bb0d5
:02055a001baed6
:02055b001badd6
:02055c001babd7
:02055d001baad7
:02055e001ba8d8
:02055f001ba6d9
:020560001ba5d9
:020561001ba3da
:020562001ba2da
:020563001ba0db
:020564001b9edc
:020565001b9ddc
:020566001b9bdd
:020567001b9add
:020568001b98de
:020569001b97de
:02056a001b95df
:02056b001b93e0
:02056c001b92e0
:02056d001b90e1
:02056e001b8fe1
:02056f001b8de2
:020570001b8be3
:020571001b8ae3
:020572001b88e4
:020573001b87e4
:020574001b85e5
:020575001b83e6
:020576001b82e6
:020577001b80e7
:020578001b7fe7
:020579001b7de8
:02057a001b7be9
:02057b001b7ae9
:02057c001b78ea
:02057d001b76eb
:02057e001b75eb
:02057f001b73ec
:020580001b72ec
:020581001b70ed
:020582001b6eee
:020583001b6dee
:020584001b6bef
:020585001b6aef
:020586001b68f0
:020587001b66f1
:020588001b65f1
:020589001b63f2
:02058a001b61f3
:02058b001b60f3
:02058c001b5ef4
:02058d001b5df4
:02058e001b5bf5
:02058f001b59f6
:020590001b58f6
:020591001b56f7
:020592001b54f8
:020593001b53f8
:020594001b51f9
:020595001b50f9
:020596001b4efa
:020597001b4cfb
:020598001b4bfb
:020599001b49fc
:02059a001b47fd
:02059b001b46fd
:02059c001b44fe
:02059d001b42ff
:02059e001b41ff
:02059f001b3f00
:0205a0001b3d01
:0205a1001b3c01
:0205a2001b3a02
:0205a3001b3902
:0205a4001b3703
:0205a5001b3504
:0205a6001b3404
:0205a7001b3205
:0205a8001b3006
:0205a9001b2f06
:0205aa001b2d07
:0205ab001b2b08
:0205ac001b2a08
:0205ad001b2809
:0205ae001b260a
:0205af001b250a
:0205b0001b230b
:0205b1001b210c
:0205b2001b200c
:0205b3001b1e0d
:0205b4001b1c0e
:0205b5001b1b0e
:0205b6001b190f
:0205b7001b1710
:0205b8001b1610
:0205b9001b1411
:0205ba001b1212
:0205bb001b1112
:0205bc001b0f13
:0205bd001b0d14
:0205be001b0c14
:0205bf001b0a15
:0205c0001b0816
:0205c1001b0716
:0205c2001b0517
:0205c3001b0318
:0205c4001b0119
:0205c5001b0019
:0205c6001afe1b
:0205c7001afc1c
:0205c8001afb1c
:0205c9001af91d
:0205ca001af71e
:0205cb001af61e
:0205cc001af41f
:0205cd001af220
:0205ce001af120
:0205cf001aef21
:0205d0001aed22
:0205d1001aeb23
:0205d2001aea23
:0205d3001ae824
:0205d4001ae625
:0205d5001ae525
:0205d6001ae326
:0205d7001ae127
:0205d8001ae027
:0205d9001ade28
:0205da001adc29
:0205db001ada2a
:0205dc001ad92a
:0205dd001ad72b
:0205de001ad52c
:0205df001ad42c
:0205e0001ad22d
:0205e1001ad02e
:0205e2001ace2f
:0205e3001acd2f
:0205e4001acb30
:0205e5001ac931
:0205e6001ac831
:0205e7001ac632
:0205e8001ac433
:0205e9001ac234
:0205ea001ac134
:0205eb001abf35
:0205ec001abd36
:0205ed001abc36
:0205ee001aba37
:0205ef001ab838
:0205f0001ab639
:0205f1001ab539
:0205f2001ab33a
:0205f3001ab13b
:0205f4001aaf3c
:0205f5001aae3c
:0205f6001aac3d
:0205f7001aaa3e
:0205f8001aa83f
:0205f9001aa73f
:0205fa001aa540
:0205fb001aa341
:0205fc001aa241
:0205fd001aa042
:0205fe001a9e43
:0205ff001a9c44
:020600001a9b43
:020601001a9944
:020602001a9745
:020603001a9546
:020604001a9446
:020605001a9247
:020606001a9048
:020607001a8e49
:020608001a8d49
:020609001a8b4a
:02060a001a894b
:02060b001a874c
:02060c001a864c
:02060d001a844d
:02060e001a824e
:02060f001a804f
:020610001a7f4f
:020611001a7d50
:020612001a7b51
:020613001a7952
:020614001a7753
:020615001a7653
:020616001a7454
:020617001a7255
:020618001a7056
:020619001a6f56
:02061a001a6d57
:02061b001a6b58
:02061c001a6959
:02061d001a6859
:02061e001a665a
:02061f001a645b
:020620001a625c
:020621001a605d
:020622001a5f5d
:020623001a5d5e
:020624001a5b5f
:020625001a5960
:020626001a5860
:020627001a5661
:020628001a5462
:020629001a5263
:02062a001a5064
:02062b001a4f64
:02062c001a4d65
:02062d001a4b66
:02062e001a4967
:02062f001a4768
:020630001a4668
:020631001a4469
:020632001a426a
:020633001a406b
:020634001a3e6c
:020635001a3d6c
:020636001a3b6d
:020637001a396e
:020638001a376f
:020639001a3570
:02063a001a3470
:02063b001a3271
:02063c001a3072
:02063d001a2e73
:02063e001a2c74
:02063f001a2b74
:020640001a2975
:020641001a2776
:020642001a2577
:020643001a2378
:020644001a2278
:020645001a2079
:020646001a1e7a
:020647001a1c7b
:020648001a1a7c
:020649001a197c
:02064a001a177d
:02064b001a157e
:02064c001a137f
:02064d001a1180
:02064e001a0f81
:02064f001a0e81
:020650001a0c82
:020651001a0a83
:020652001a0884
:020653001a0685
:020654001a0486
:020655001a0386
:020656001a0187
:0206570019ff89
:0206580019fd8a
:0206590019fb8b
:02065a0019f98c
:02065b0019f88c
:02065c0019f68d
:02065d0019f48e
:02065e0019f28f
:02065f0019f090
:0206600019ee91
:0206610019ed91
:0206620019eb92
:0206630019e993
:0206640019e794
:0206650019e595
:0206660019e396
:0206670019e296
:0206680019e097
:0206690019de98
:02066a0019dc99
:02066b0019da9a
:02066c0019d89b
:02066d0019d69c
:02066e0019d59c
:02066f0019d39d
:0206700019d19e
:0206710019cf9f
:0206720019cda0
:0206730019cba1
:0206740019c9a2
:0206750019c8a2
:0206760019c6a3
:0206770019c4a4
:0206780019c2a5
:0206790019c0a6
:02067a0019bea7
:02067b0019bca8
:02067c0019bba8
:02067d0019b9a9
:02067e0019b7aa
:02067f0019b5ab
:0206800019b3ac
:0206810019b1ad
:0206820019afae
:0206830019adaf
:0206840019acaf
:0206850019aab0
:0206860019a8b1
:0206870019a6b2
:0206880019a4b3
:0206890019a2b4
:02068a0019a0b5
:02068b00199eb6
:02068c00199db6
:02068d00199bb7
:02068e001999b8
:02068f001997b9
:020690001995ba
:020691001993bb
:020692001991bc
:02069300198fbd
:02069400198dbe
:02069500198cbe
:02069600198abf
:020697001988c0
:020698001986c1
:020699001984c2
:02069a001982c3
:02069b001980c4
:02069c00197ec5
:02069d00197cc6
:02069e00197bc6
:02069f001979c7
:0206a0001977c8
:0206a1001975c9
:0206a2001973ca
:0206a3001971cb
:0206a400196fcc
:0206a500196dcd
:0206a600196bce
:0206a7001969cf
:0206a8001967d0
:0206a9001966d0
:0206aa001964d1
:0206ab001962d2
:0206ac001960d3
:0206ad00195ed4
:0206ae00195cd5
:0206af00195ad6
:0206b0001958d7
:0206b1001956d8
:0206b2001954d9
:0206b3001952da
:0206b4001950db
:0206b500194fdb
:0206b600194ddc
:0206b700194bdd
:0206b8001949de
:0206b9001947df
:0206ba001945e0
:0206bb001943e1
:0206bc001941e2
:0206bd00193fe3
:0206be00193de4
:0206bf00193be5
:0206c0001939e6
:0206c1001937e7
:0206c2001935e8
:0206c3001934e8
:0206c4001932e9
:0206c5001930ea
:0206c600192eeb
:0206c700192cec
:0206c800192aed
:0206c9001928ee
:0206ca001926ef
:0206cb001924f0
:0206cc001922f1
:0206cd001920f2
:0206ce00191ef3
:0206cf00191cf4
:0206d000191af5
:0206d1001918f6
:0206d2001916f7
:0206d3001914f8
:0206d4001913f8
:0206d5001911f9
:0206d600190ffa
:0206d700190dfb
:0206d800190bfc
:0206d9001909fd
:0206da001907fe
:0206db001905ff
:0206dc00190300
:0206dd00190101
:0206de0018ff03
:0206df0018fd04
:0206e00018fb05
:0206e10018f906
:0206e20018f707
:0206e30018f508
:0206e40018f309
:0206e50018f10a
:0206e60018ef0b
:0206e70018ed0c
:0206e80018eb0d
:0206e90018e90e
:0206ea0018e70f
:0206eb0018e510
:0206ec0018e311
:0206ed0018e112
:0206ee0018df13
:0206ef0018dd14
:0206f00018db15
:0206f10018da15
:0206f20018d816
:0206f30018d617
:0206f40018d418
:0206f50018d219
:0206f60018d01a
:0206f70018ce1b
:0206f80018cc1c
:0206f90018ca1d
:0206fa0018c81e
:0206fb0018c61f
:0206fc0018c420
:0206fd0018c221
:0206fe0018c022
:0206ff0018be23
:0207000018bc23
:0207010018ba24
:0207020018b825
:0207030018b626
:0207040018b427
:0207050018b228
:0207060018b029
:0207070018ae2a
:0207080018ac2b
:0207090018aa2c
:02070a0018a82d
:02070b0018a62e
:02070c0018a42f
:02070d0018a230
:02070e0018a031
:02070f00189e32
:02071000189c33
:02071100189a34
:02071200189835
:02071300189636
:02071400189437
:02071500189238
:02071600189039
:02071700188e3a
:02071800188c3b
:02071900188a3c
:02071a0018883d
:02071b0018863e
:02071c0018843f
:02071d00188240
:02071e00188041
:02071f00187e42
:02072000187b44
:02072100187945
:02072200187746
:02072300187547
:02072400187348
:02072500187149
:02072600186f4a
:02072700186d4b
:02072800186b4c
:0207290018694d
:02072a0018674e
:02072b0018654f
:02072c00186350
:02072d00186151
:02072e00185f52
:02072f00185d53
:02073000185b54
:02073100185955
:02073200185756
:02073300185557
:02073400185358
:02073500185159
:02073600184f5a
:02073700184d5b
:02073800184b5c
:0207390018495d
:02073a0018475e
:02073b0018455f
:02073c00184261
:02073d00184062
:02073e00183e63
:02073f00183c64
:02074000183a65
:02074100183866
:02074200183667
:02074300183468
:02074400183269
:0207450018306a
:02074600182e6b
:02074700182c6c
:02074800182a6d
:0207490018286e
:02074a0018266f
:02074b00182470
:02074c00182271
:02074d00182072
:02074e00181d74
:02074f00181b75
:02075000181976
:02075100181777
:02075200181578
:02075300181379
:0207540018117a
:02075500180f7b
:02075600180d7c
:02075700180b7d
:0207580018097e
:0207590018077f
:02075a00180580
:02075b00180381
:02075c00180083
:02075d0017fe85
:02075e0017fc86
:02075f0017fa87
:0207600017f888
:0207610017f689
:0207620017f48a
:0207630017f28b
:0207640017f08c
:0207650017ee8d
:0207660017ec8e
:0207670017ea8f
:0207680017e890
:0207690017e592
:02076a0017e393
:02076b0017e194
:02076c0017df95
:02076d0017dd96
:02076e0017db97
:02076f0017d998
:0207700017d799
:0207710017d59a
:0207720017d39b
:0207730017d09d
:0207740017ce9e
:0207750017cc9f
:0207760017caa0
:0207770017c8a1
:0207780017c6a2
:0207790017c4a3
:02077a0017c2a4
:02077b0017c0a5
:02077c0017bea6
:02077d0017bba8
:02077e0017b9a9
:02077f0017b7aa
:0207800017b5ab
:0207810017b3ac
:0207820017b1ad
:0207830017afae
:0207840017adaf
:0207850017abb0
:0207860017a8b2
:0207870017a6b3
:0207880017a4b4
:0207890017a2b5
:02078a0017a0b6
:02078b00179eb7
:02078c00179cb8
:02078d00179ab9
:02078e001798ba
:02078f001795bc
:020790001793bd
:020791001791be
:02079200178fbf
:02079300178dc0
:02079400178bc1
:020795001789c2
:020796001787c3
:020797001784c5
:020798001782c6
:020799001780c7
:02079a00177ec8
:02079b00177cc9
:02079c00177aca
:02079d001778cb
:02079e001775cd
:02079f001773ce
:0207a0001771cf
:0207a100176fd0
:0207a200176dd1
:0207a300176bd2
:0207a4001769d3
:0207a5001766d5
:0207a6001764d6
:0207a7001762d7
:0207a8001760d8
:0207a900175ed9
:0207aa00175cda
:0207ab00175adb
:0207ac001757dd
:0207ad001755de
:0207ae001753df
:0207af001751e0
:0207b000174fe1
:0207b100174de2
:0207b200174be3
:0207b3001748e5
:0207b4001746e6
:0207b5001744e7
:0207b6001742e8
:0207b7001740e9
:0207b800173eea
:0207b900173bec
:0207ba001739ed
:0207bb001737ee
:0207bc001735ef
:0207bd001733f0
:0207be001731f1
:0207bf00172ef3
:0207c000172cf4
:0207c100172af5
:0207c2001728f6
:0207c3001726f7
:0207c4001724f8
:0207c5001721fa
:0207c600171ffb
:0207c700171dfc
:0207c800171bfd
:0207c9001719fe
:0207ca001717ff
:0207cb00171401
:0207cc00171202
:0207cd00171003
:0207ce00170e04
:0207cf00170c05
:0207d000170a06
:0207d100170708
:0207d200170509
:0207d30017030a
:0207d40017010b
:0207d50016ff0d
:0207d60016fc0f
:0207d70016fa10
:0207d80016f811
:0207d90016f612
:0207da0016f413
:0207db0016f214
:0207dc0016ef16
:0207dd0016ed17
:0207de0016eb18
:0207df0016e919
:0207e00016e71a
:0207e10016e41c
:0207e20016e21d
:0207e30016e01e
:0207e40016de1f
:0207e50016dc20
:0207e60016d922
:0207e70016d723
:0207e80016d524
:0207e90016d325
:0207ea0016d126
:0207eb0016ce28
:0207ec0016cc29
:0207ed0016ca2a
:0207ee0016c82b
:0207ef0016c62c
:0207f00016c32e
:0207f10016c12f
:0207f20016bf30
:0207f30016bd31
:0207f40016bb32
:0207f50016b834
:0207f60016b635
:0207f70016b436
:0207f80016b237
:0207f90016af39
:0207fa0016ad3a
:0207fb0016ab3b
:0207fc0016a93c
:0207fd0016a73d
:0207fe0016a43f
:0207ff0016a240
:00000001FF
